:10000000F8C401205D78000089760000597800006E
:10001000597800005978000059780000597800009C
:1000200000000000000000000000000059780000FF
:10003000597800000000000059780000597800004D
:10004000D16200001164000005650000CD6500006C
:10005000D16200001164000005650000CD6500005C
:10006000F55C0000FD5B0000515E0000A15E000039
:100070003D6B0000456C0000F16C000081700000D9
:1000800081700000B92E0000ED2E0000212F00002D
:10009000452F0000000000000000000000000000EC
:1000A0000000000000000000000000000000000050
:1000B0000000000000000000000000000000000040
:1000C0000000000000000000000000000000000030
:1000D0000000000000000000000000000000000020
:1000E0000000000000000000000000000000000010
:1000F0000000000000000000000000000000000000
:1001000000000000000000000000000000000000EF
:1001100000000000000000000000000000000000DF
:1001200000000000000000000000000000000000CF
:1001300000000000000000000000000000000000BF
:1001400000000000000000000000000000000000AF
:10015000000000000000000000000000000000009F
:10016000000000000000000000000000000000008F
:10017000000000000000000000000000000000007F
:10018000000000000000000000000000000000006F
:10019000000000000000000000000000000000005F
:1001A000000000000000000000000000000000004F
:1001B000000000000000000000000000000000003F
:1001C000FFFFFFFFFFFFFFFFFFFFFFFFFFFFFFFF3F
:1001D000FFFFFFFFFFFFFFFFFFFFFFFFFFFFFFFF2F
:1001E000FFFFFFFFFFFFFFFFFFFFFFFFFFFFFFFF1F
:1001F000FFFFFFFFFFFFFFFFFFFFFFFFFFFFFFFF0F
:1002000010B5054C237833B9044B13B1044800E012
:1002100000BF0123237010BD980F002000000000D4
:100220004895010008B5034B1BB10349034800E0A2
:1002300000BF08BD000000009C0F00204895010091
:1002400070B52DED048BAE4E88B0044601AA032193
:10025000304606F063FFBDF804309FEDAA9A07EE22
:10026000903AF8EE677ADFEDA88A67EE897A9FED1B
:10027000A78A77EEA87A67EE887AFCEEE77A17EE1F
:10028000903A0DF1060204213046ADF8043006F034
:1002900045FFBDF8063002AA07EE903AF8EE677AFD
:1002A00067EE897A77EEA87A67EE887AFCEEE77ACD
:1002B00017EE903A05213046ADF8063006F02EFFD5
:1002C000BDF808300DF10A0207EE903AF8EE677AB1
:1002D00067EE897A77EEA87A67EE887AFCEEE77A9D
:1002E00017EE903A06213046ADF8083006F016FFBA
:1002F000BDF80A3003AA07EE903AF8EE677A67EE87
:10030000897A77EEA87A67EE887AFCEEE77A17EEBC
:10031000903A07213046ADF80A3006F0FFFEBDF8EE
:100320000C300DF10E0207EE903AF8EE677A67EEA8
:10033000897A77EEA87A67EE887AFCEEE77A17EE8C
:10034000903A08213046ADF80C3006F0E7FEBDF8D3
:100350000E3004AA07EE903AF8EE677A67EE897AD3
:1003600077EEA87A67EE887AFCEEE77A17EE903A95
:1003700009213046ADF80E3006F0D0FEBDF8103041
:100380000DF1120207EE903AF8EE677A67EE897A7D
:1003900077EEA87A67EE887AFCEEE77A17EE903A65
:1003A0000C213046ADF8103006F0B8FEBDF8123022
:1003B00005AA07EE903AF8EE677A67EE897A77EE4B
:1003C000A87A67EE887AFCEEE77A17EE903A304624
:1003D0000D21ADF8123006F0A1FEBDF814304C4DE1
:1003E00007EE903AF8EE677A67EE897A77EEA87AA8
:1003F00067EE887AFCEEE77A17EE903A0DF1160276
:1004000017212846ADF8143006F088FEBDF81630E6
:1004100006AA07EE903AF8EE677A67EE897A77EEE9
:10042000A87A67EE887AFCEEE77A17EE903A162102
:100430002846ADF8163006F071FEBDF818300DF103
:100440001A0207EE903AF8EE677A67EE897A77EE4D
:10045000A87A67EE887AFCEEE77A17EE903A1521D3
:100460002846ADF8183006F059FEBDF81A3007AA34
:1004700007EE903AF8EE677A67EE897A77EEA87A17
:1004800067EE887AFCEEE77A17EE903A1421284658
:10049000ADF81A3006F042FEBDF81C300DF11E0218
:1004A00007EE903AF8EE677A67EE897A77EEA87AE7
:1004B00067EE887AFCEEE77A17EE903A1321284629
:1004C000ADF81C3006F02AFEBDF81E30002207EE03
:1004D000903AF8EE677A27EE899A79EE288A28EE24
:1004E000888ABCEEC88A18EE103A204601A9ADF8F9
:1004F0001E3009F025FA08B0BDEC048B70BD00BFBA
:10050000F8130020BC3F4E3F000000003A23024099
:100510001C14002070B52DED028B594D86B0044699
:100520000DF10A020021284606F0F8FDBDF80A3058
:100530009FED548A07EE903AF8EE677ADFED528A23
:1005400067EE887A9FED517A77EEA87A67EE877A20
:10055000FCEEE77A17EE903A0DF10E0201212846E3
:10056000ADF80A3006F0DAFDBDF80E309FED487A9E
:1005700007EE903AF8EE677A67EE887A77EEA87A17
:1005800067EE877AFCEEE77A17EE903A03AA02212B
:100590002846ADF80E3006F0C1FDBDF80C309FEDD9
:1005A0003D7A07EE903AF8EE677A67EE887A77EE52
:1005B000A87A67EE877AFCEEE77A17EE903A364E25
:1005C00002AA1A213046ADF80C3006F0A7FDBDF89E
:1005D0000830B0EE047A07EE903AF8EE677A67EEEC
:1005E000887A77EEA87A67EE877AFCEEE77A17EEDC
:1005F000903A0DF1060219213046ADF8083006F0A8
:100600008DFDBDF806309FED257A07EE903AF8EEA5
:10061000677A67EE887A77EEA87A67EE877AFCEEDB
:10062000E77A17EE903A01AA30461021ADF806306D
:1006300006F074FDBDF80430DFED196A07EE903A5C
:10064000F8EE677A67EE887A9FED167A77EEE67AAB
:1006500067EE877AFCEEE77A17EE903A0DF1170213
:100660006FF002012846ADF8043006F057FD002275
:10067000204601A909F064F906B0BDEC028B70BDFB
:10068000F8130020BC3F4E3F000000004221AF4164
:10069000BC740D40C99391401C140020CA545540AD
:1006A00000201945508D234108B50649064805F03C
:1006B0000FFD00B908BD1421044B054A054806F09A
:1006C000A7FF00BFC4790100F01300207072010081
:1006D000C472010084720100F0B5684C83B00DF162
:1006E0000702074640F20C71654805F019FC9DF8B9
:1006F000073022789A4200F0B880003B18BF0123EF
:100700000122604D23702A700DF1070240F20B7137
:100710005B4805F005FC9DF8073062789A4205D0E9
:10072000003B18BF0123012263702A700DF10702FC
:1007300040F20A71524805F0F3FB9DF80730A278A9
:100740009A4205D0003B18BF01230122A3702A70F2
:100750000DF1070240F20971494805F0E1FB9DF8EF
:100760000730E2789A4205D0003B18BF01230122EE
:10077000E3702A700DF107024FF4E161404805F083
:10078000CFFB9DF8073022799A4205D0003B18BF75
:100790000123012223712A700DF107024FF4027127
:1007A000374805F0BDFB9DF8073062799A4205D0C5
:1007B000003B18BF0123012263712A700DF107026B
:1007C00040F209212E4805F0ABFB9DF80730A279D5
:1007D0009A4205D0003B18BF01230122A3712A7061
:1007E0000DF1070240F20D41254805F099FB9DF8F7
:1007F0000730E2799A4205D0003B18BF012301225D
:10080000E3712A700DF1070240F20C411C4805F01B
:1008100087FB9DF80730227A9A4205D0003B18BF2B
:100820000123012223722A700DF107024FF4007197
:10083000134805F075FB9DF80730627A06469A4228
:100840000FD0003B18BF0123012263722A700022DF
:1008500038460A4909F074F800232B703EB903B0FA
:10086000F0BD2B78002BF9D0F1E7064D4CE76B215A
:10087000054B064A064806F0CBFE00BFB40F002029
:10088000F01300200000002070720100AC72010023
:10089000847201002DE9F04103780446013B8CB0DD
:1008A000092B24D8DFE803F0054E5A676C71767B7C
:1008B000802604AD2E464FF00008474F0FCF0FC6DD
:1008C00097E80F0086E80F0001A9284605F026FFEB
:1008D0006178039864220023A1FB000114F0D6FD87
:1008E00042460146284605F06DFF00286ED10CB047
:1008F000BDE8F08104AD2F46DFF8F0C00126BCE86A
:100900000F000FC79CE8070087E8070001A92846E9
:1009100006F06CFA63780399632B4AD92F4B01EBED
:10092000410101EB4111A3FB01313246284649093F
:1009300006F010FA0028DAD09E21294B294A2A48CD
:1009400006F066FE04AD2E46234F4FF001080FCF90
:100950000FC697E80F0086E80F00B5E704AD2F46F5
:10096000DFF88CC0BCE80F000FC700269CE807002A
:1009700087E80700CAE704AD2F46DFF874C0BDE77B
:1009800004AD2F46DFF86CC0ECE704AD2F46DFF86E
:1009900064C0B3E704AD2F46DFF85CC0E2E704AD06
:1009A0002F46DFF854C0A9E704AD2F46DFF83CC05E
:1009B000D8E703FB01F1094B3246A3FB013128467E
:1009C000490906F0C7F9002891D0B5E7AB21044BDF
:1009D000044A054806F01CFEA01500201F85EB51B7
:1009E000707201003C730100D872010014160020DF
:1009F000C0150020DC150020F8150020F0B51338D4
:100A00000C468DB0172837D8DFE810F084007F003F
:100A10007A0075004A00890038003800450045001A
:100A20001800180070006B00660061005C004F0049
:100A30008E00DB00CB00BB00AC009D0004ADAC46DB
:100A400000266B4F0FCFACE80F0097E80F008CE843
:100A50000F0001A9284605F061FE039964220023D6
:100A6000A4FB010114F012FD32460146284605F0B0
:100A7000A9FE002840F0B5800DB0F0BD04AD2F46B2
:100A8000DFF880C1BCE80F000FC700269CE80F000C
:100A900087E80F00DDE704AD2F46DFF86CC1F1E712
:100AA00004AD2F46DFF864C1ECE704AD2F46DFF854
:100AB00060C1BCE80F000FC701269CE80F0087E863
:100AC0000F00C6E704AD2F46DFF840C1F1E704ADE3
:100AD0002F46DFF840C1ECE704AD2F46DFF838C100
:100AE000E7E704AD2F46DFF834C1E2E704AD2F4657
:100AF000DFF82CC1DDE704AD2F46DFF818C1C1E7F0
:100B000004AD2F46DFF810C1BCE704AD2F46DFF877
:100B10000CC1B7E704AD2F46DFF804C1B2E704AD5E
:100B20002F46DFF8ECC0ADE700224FF48171314869
:100B300005F008FA00289FD04FF4C9712E4B2F4AB8
:100B40002F4806F065FD002240F20D31294805F0DE
:100B5000F9F9002890D040F2ED11274B274A284898
:100B600006F056FD002240F20E21224805F0EAF977
:100B7000002881D04FF4EE711F4B204A204806F028
:100B800047FD002240F204611A4805F0DBF9002815
:100B90003FF472AF40F2CB11174B184A184806F0D9
:100BA00037FD002240F20361124805F0CBF900281E
:100BB0003FF462AF4FF4DD710F4B104A104806F05E
:100BC00027FD002240F203110A4805F0BBF9002876
:100BD0003FF452AF4FF4D371074B084A084806F070
:100BE00017FD4FF40871044B044A054806F010FD48
:100BF00080150020F01300207072010018730100AE
:100C0000D87201004015002060150020001500205A
:100C100020150020E0140020C0140020A0140020A3
:100C200080140020072838B5144606D008280FD0B5
:100C3000BDE838401146FFF7E1BEE9B111461F207B
:100C4000FFF7DCFEBDE8384000211320FFF7D6BED9
:100C500049B111462020FFF7D1FEBDE83840002100
:100C60001420FFF7CBBE2020FFF7C8FE2146BDE8C9
:100C700038401420FFF7C2BE1F20FFF7BFFE2146F9
:100C8000BDE838401320FFF7B9BE00BF38B50446B1
:100C90000078012803D0831E042B14D838BD657852
:100CA000BDB1A1781F20FFF7A9FE00211320FFF797
:100CB000A5FE00212020FFF7A1FEBDE838406421F9
:100CC0001420FFF79BBEA2786178BDE83840FFF79B
:100CD000A9BF29461F20FFF791FE64211320FFF7CB
:100CE0008DFEA1782020FFF789FE2946BDE8384017
:100CF0001420FFF783BE00BF08B50378012B00D096
:100D000008BD427840F20261054805F01BF9002851
:100D1000F6D040F23721034B034A044806F078FC32
:100D2000F013002070720100F8720100D872010007
:100D300008B52149214806F02BFAC0B920492148BD
:100D400006F026FA002830D11F491C4806F0A6FA02
:100D500028BB1E491B4806F0A1FAD0B9174806F077
:100D6000D7F980B9174806F0D3F930B908BD132177
:100D7000174B184A184806F04BFC1D21144B154A16
:100D8000154806F045FC1B21114B124A124806F08B
:100D90003FFC19210E4B0F4A0F4806F039FC172172
:100DA0000B4B0C4A0C4806F033FC1521084B094A42
:100DB000094806F02DFC00BF18750100F81300204B
:100DC000507501001C1400203C7501007475010071
:100DD00070720100787301005873010070B51446F9
:100DE00084B00E4601A9054605F098FC03996422DB
:100DF0000023A4FB010114F049FB324601462846BA
:100E000005F0E0FC50B93146284605F087FE88B968
:100E1000284605F07DFC38B904B070BDB521084BFB
:100E2000084A094806F0F4FBB921054B054A064873
:100E300006F0EEFBB721024B024A034806F0E8FB3E
:100E400070720100BC7301008473010070B5144618
:100E500084B00E4601A9054605F0C8FF0399642237
:100E60000023A4FB010114F011FB32460146284681
:100E700005F070FF28B9284605F08EFF38B904B098
:100E800070BDCE21054B064A064806F0C1FBD021B5
:100E9000024B034A034806F0BBFB00BF707201001F
:100EA000A07301008473010000B5A64983B0A64871
:100EB00005F01AFD002840F0F08002460146A248E5
:100EC0000192FFF78BFF019A01219F48FFF786FFF0
:100ED0009E499F4805F0F2FF0246002840F02B8112
:100EE00001469B480192FFF7B1FF019A0121984802
:100EF000FFF7ACFF9749984805F0E0FF024600284D
:100F000040F01381014694480192FFF79FFF019A38
:100F100001219148FFF79AFF9049914805F0CEFFD3
:100F20000246002840F0FB8001468D480192FFF701
:100F30008DFF019A01218A48FFF788FF89498A4875
:100F400005F0BCFF0246002840F0E38001468648D9
:100F50000192FFF77BFF019A01218348FFF776FF9B
:100F60008249834805F0C0FC0246002840F0CB804F
:100F700001467F480192FFF731FF019A01217C4829
:100F8000FFF72CFF7B497C4805F0AEFC02460028A9
:100F900040F0B380014678480192FFF71FFF019AA5
:100FA00001217548FFF71AFF7449754805F09CFC4C
:100FB0000246002840F09B80014671480192FFF7ED
:100FC0000DFF019A01216E48FFF708FF6D496E4839
:100FD00005F08AFC0246002840F0838001466A48FA
:100FE0000192FFF7FBFE01216748019AFFF7F6FE29
:100FF0006649674805F078FC00286CD100226448F7
:101000001146FFF7EBFE002201216148FFF7E6FEE3
:101010006049614805F068FC0246002855D1014648
:101020005D480192FFF7DAFE019A01215A48FFF765
:10103000D5FE5A495A4805F057FC024600283ED1D1
:10104000014657480192FFF7C9FE019A0121544811
:10105000FFF7C4FE5349544805F046FC024640BB26
:10106000014651480192FFF7B9FE019A01214E480D
:10107000FFF7B4FE4D494E4805F036FC024690B9E4
:1010800001464B480192FFF7A9FE0121019A484809
:1010900003B05DF804EBFFF7A1BE4921454B464A7A
:1010A000464806F0B5FA9E21424B434A434806F0B3
:1010B000AFFA98213F4B404A404806F0A9FA9221E6
:1010C0003C4B3D4A3D4806F0A3FA8C21394B3A4A45
:1010D0003A4806F09DFA8621364B374A374806F0E3
:1010E00097FA8021334B344A344806F091FA7A213A
:1010F000304B314A314806F08BFA74212D4B2E4A81
:101100002E4806F085FA6E212A4B2B4A2B4806F012
:101110007FFA6321274B284A284806F079FA5D2197
:10112000244B254A254806F073FA5721214B224AC1
:10113000224806F06DFA50211E4B1F4A1F4806F048
:1011400067FA00BFAC780100A0150020FC78010010
:10115000C015002024790100DC1500204C79010025
:10116000F81500207479010014160020DC750100C8
:10117000801400202C760100A01400207C76010051
:10118000C0140020CC760100E01400201C77010080
:10119000001500206C77010020150020BC770100AD
:1011A000401500200C780100601500205C780100DB
:1011B0008015002070720100D87301008473010053
:1011C00008B50849084805F079FE20B9BDE808408F
:1011D000054805F0E1BD1321044B054A054806F01A
:1011E00017FA00BF9C79010030160020EC73010053
:1011F0001C7401000074010010B51348134C88B032
:101200000021CDE90004124B124A012009F0B8FB7D
:1012100003A809F0D1FA104C1049114A114B03A848
:10122000CDE90341CDE9052309F0D6FA18B100F064
:1012300035F808B010BD2A210B4814F091FC00F0DD
:101240002DF808B010BD00BF151800001D180000D3
:1012500005180000ED17000085120000891200003B
:101260008D1200009112000034740100022800D099
:1012700070470249024804F02BBF00BFC479010047
:10128000F013002014F026BB14F02CBB14F0ECBCBF
:101290000B46012103FB00F014F0C6BA2DE9F04F14
:1012A000C3B00EACFFF78CFFFFF7FEFDFFF740FD6C
:1012B000FFF7FAF9204609F0ADFA08F06FF9054694
:1012C00011AB93E803008DE8030004A894E80E0036
:1012D000049508F065F9FF2104A808F05DFA0022E2
:1012E00004AB1146009413A809F086F9734A7449B7
:1012F00013AB0CA809F0B4F928B14FF47A7164204B
:1013000006F08EF9F9E706F00FFB6E4B02460CA9CA
:1013100005A809F0E1F928B14FF47A71642006F0CC
:101320007FF9F9E706F030FB674B02460CA906A8E7
:1013300009F0D2F928B14FF47A71642006F070F9FF
:10134000F9E706F051FB614B02460CA907A809F02A
:10135000C3F928B14FF47A71642006F061F9F9E716
:101360000AF084FD5A4B02460CA908A809F0B4F90A
:1013700028B14FF47A71642006F052F9F9E706F0CB
:101380001BFB544B02460CA909A809F0D9F928B156
:101390004FF47A71642006F043F9F9E706F0DCFABD
:1013A0004D4B02460CA90AA809F0CAF928B14FF41E
:1013B0007A71642006F034F9F9E706F02DFB474B0B
:1013C00002460CA90BA809F0BBF928B14FF47A71B9
:1013D000642006F025F9F9E720A808F041FE23462D
:1013E000032213A920A808F047FE28B14FF47A7110
:1013F000642006F015F9F9E70090394B09A903AA12
:1014000020A808F0A5FE28B14FF47A71642006F0F8
:1014100007F9F9E700230AA9009303AA314B20A892
:1014200008F096FE28B14FF47A71642006F0F8F8BF
:10143000F9E700902C4B03AA0BA920A808F088FE1E
:101440000446002834D14FF00009DFF8ACB0DFF8D3
:10145000ACA0264F264E274DDFF8A4800CE03B7849
:1014600003B13C703378CBB92B7803B12C70424672
:101470004B4620A809F088F89BF800300BB18BF898
:1014800000409AF80030002BE9D005A88AF8004007
:10149000FEF7D6FE06A8FFF71FF9E0E707A83470AD
:1014A000FFF738F8002202A908A808F049FADBE79C
:1014B0004FF47A71642006F0B3F8F9E79C900100CC
:1014C0005C7401006C740100747401007C74010090
:1014D000A0740100C0740100D0740100E874010020
:1014E000950800008D0C0000F90C0000BE0F0020D4
:1014F000BF0F0020C10F0020C00F0020C20F00202E
:1015000040420F004FF0010CF0B41B4F1B4E1C4D1E
:101510001C4B1D4C397830782A7883F800C023881A
:101520006144C9B2604462446344C0B2D2B29BB267
:101530000329307039702A70238004D1002139705A
:10154000124981F800C00A2804D10021012031701D
:101550000F490870642A04D1012000220D492A7025
:101560000870B3F57A7F04D1012100230A4A238051
:101570001170F0BC704700BFC80F0020C30F0020DF
:10158000C40F0020C00F0020C60F0020C20F002093
:10159000BE0F0020BF0F0020C10F0020044AD2E977
:1015A0000031013341F10001C2E90031704700BF51
:1015B000E00F0020FFFFFFFF2DE9F0433A4E0D46FC
:1015C000337883B0002B35D0384B394F5E68394CB7
:1015D0006946394805F0CEFBD4E90002D7E9003767
:1015E0000099711A354ED6E9004604FB02F200FB61
:1015F0000622A3FB0136A4FB004001FB07661C1971
:10160000024446EB0206204621A3D3E900233146DB
:1016100013F03CFF03462B60DB176B6031461CA3C5
:10162000D3E90023204613F031FF0020AA6003B065
:10163000BDE8F0834FF00109DFF870801E48414695
:1016400005F03CFC1C4805F0A7FB98F80800184F73
:1016500009FA00F013F04EFC0FA3D3E9002313F0B6
:10166000DDFD0FA3D3E9002313F0AEFC13F026FF3A
:1016700086F80090D8F804603860A6FB000306FBEB
:1016800001330C4C796020606360A1E7AFF3008008
:1016900000CA9A3B000000000000000084D75741B8
:1016A0000000000065CDCD41E80F0020B4750100B9
:1016B000D80F0020D00F002064140020E00F00207D
:1016C0002DE9F04F002483B001288DF807408046B3
:1016D00092461C4670D0022874D007F02DFF0546B4
:1016E0000F463D4EDFF8F490DFF8FCB0631C09D0E4
:1016F00007F022FF401B61EB0701E317A04271EBEB
:10170000030345DA30460DF1070104F015F800280F
:101710003ED19DF80730033B072BE7D801A252F8D2
:1017200023F000BF45170000ED160000ED16000085
:10173000ED16000063170000ED16000053170000BF
:1017400045170000B8F1010FD0D1504603B0BDE8F5
:10175000F08FB8F1020FC9D11F4B986803B0BDE8F4
:10176000F08F30461D4903F0DFFFB9F8003003F475
:101770007F43B3F5005F0FD0B3F5045F14D0B3F52A
:10178000085FB3D10021304604F0B4F90028ADD091
:10179000002003B0BDE8F08F07225946304604F020
:1017A00061F90028A2D0F3E707225946304604F039
:1017B0007DF900289AD0EBE7094B07481B7804F025
:1017C00027F98AE7064B4FF47A721B7805490248DD
:1017D00004F0F4F881E700BF40140020E813002073
:1017E000F40F0020F80F0020EC0F002008B503498B
:1017F000034803F0CDFF012008BD00BF887501003C
:101800004014002008B5024804F0AEF8012008BDDD
:101810004014002064230120FFF752BFF8B5194D92
:101820000C462E681746F6B117490B68B34225D20D
:1018300037B3E019421E154F04F1FF3C01E0944517
:1018400010D06046FB5C02300CF8013F0B682E683C
:101850000133B3420B60A0EB0400F0D39E4201D1F0
:1018600000232B60F8BD314632460220FFF728FFE7
:10187000054933460E6028600646D7E70020EDE7AD
:101880003846F8BDE4130020E0130020F80F0020D4
:1018900008B5FFF7B1FC002008BD00BF1B4B1B883B
:1018A000012B00D07047837F10B5022B0CBF802125
:1018B00082218AB0C26804698DF80630838C121BBD
:1018C000042B03928DF8071011D0052B18D0032B91
:1018D00012D040F2DC53ADF8083090F8203001A966
:1018E00009208DF8043002F013F80AB010BD40F260
:1018F000DE53ADF80830F0E70023ADF80830ECE730
:1019000040F2DF53ADF80830E7E700BFBA17002018
:10191000154B1B88012B00D0704700B5837F8BB01F
:10192000012B8DF806301AD0ABB181238DF807302A
:10193000818C40F2DC53012908BF002390F820205D
:1019400001A90A208DF80420ADF8083001F0E0FF6D
:101950000BB05DF804FB82238DF80730E8E78023A5
:101960008DF80730E4E700BFBA17002010B5044631
:1019700031B900F029FEC30517D54FF4807010BDB2
:1019800000F09AFE204600F0AFFE10F4807F204663
:1019900006D000F0EFFE800A0130800180B210BD59
:1019A00000F0FEFEC0F30A0010BD204600F040FE2D
:1019B00000F07F0010BD00BF2DE9F843554B90F8B3
:1019C0002070044633F817300D469BB2022B52D0DC
:1019D00000F07CFC2946204600F0B2FC2946204657
:1019E00000F0FCFC2946204601F072FF2946204603
:1019F00000F062FE642207FB02F2DFF8208105EBB3
:101A0000850302EB430343445988AE001FFA87F96C
:101A1000204600F085FEB9F1010F68D073196426E5
:101A200007FB06F606EB430646442046F18800F025
:101A3000D3FE2046318900F0E7FE2046002100F069
:101A40003BFE2946204600F089FF2946204601F04A
:101A50002BFF2946204600F023FF2946204600F0B0
:101A6000EBFC2946204600F00BFD29462046BDE848
:101A7000F84300F029BD0022274B43F8212002F053
:101A80000BFD80462946204694F8207000F01EFC8D
:101A90002946204600F054FC2946204600F09EFCD2
:101AA00008F1FF382946204601F012FF1FFA88F896
:101AB0002946204600F000FEB8F1010F1FFA87F911
:101AC000DFF858801CD8642207FB02F205EB85037F
:101AD00002EB430343445988204641F48061598016
:101AE00000F01EFEB9F1010F4FEA850696D1731979
:101AF00008EB43032046B3F8681000F029FE8DE799
:101B000064230A2207FB03F302FB0533434459888D
:101B1000AE007DE7741E002050160020A0160020A5
:101B200070B5334B90F82020054633F812300E463E
:101B30009BB2022B03D100222E4B43F821203146C9
:101B4000284601F0C5FE3146284600F0BFFB31466D
:101B5000284600F0F5FB3146284600F03FFC48F2ED
:101B60002F034FF400420021284600F05DFA0021C7
:101B7000284600F023FA10F02F04F8D13146284609
:101B800000F09AFD2146284600F0CAFD214628466D
:101B900000F0DEFD2146284600F01EFE21462846C4
:101BA00000F032FE2146284600F086FD31462846E8
:101BB00000F0D4FE3146284601F076FE3146284634
:101BC00000F06EFE3146284600F074FF314628468C
:101BD00000F08EFF3146284600F02EFC31462846A4
:101BE00000F04EFC31462846BDE8704000F06CBC69
:101BF000741E00205016002070B501224FF6FF74AD
:101C000006460D4600F010FF2946304600F014FE4F
:101C1000013C8306A4B200D470BD002CF4D170BD89
:101C200070B505461646A2B164240BE0284600F0C4
:101C30005BF8013C284600F0DBF8A4B20A2001F072
:101C400033F9C4B13146284600F076FA8304EDD565
:101C500070BD41EA0304114648F22F0344F40042E8
:101C600000F0E2F90021284600F0A8F900F02F006A
:101C70008442F7D1D8E7FF2070BD00BF02B17047A2
:101C800038B543EA0104114648F22F0344F40042F8
:101C9000054600F0C9F90021284600F08FF900F050
:101CA0002F039C42F7D138BD30B504460D4683B0B2
:101CB000019200F01DFF29462046019A00F036FFF0
:101CC0002946204603B0BDE8304000F0D5BE00BF35
:101CD00038B504460D4600F0EDFE29462046BDE825
:101CE000384000F005BF00BF094B90F8202033F8C2
:101CF00012309BB2022B01D0002070471AB9054B5D
:101D0000188880B27047044B188880B2704700BFB3
:101D1000741E00200000094000101140012805D168
:101D2000034A13889BB243F480731380704700BF4B
:101D300000101140094B90F8202033F812309BB26C
:101D4000022B00D07047012AFCD1054A138823F4E6
:101D500080731B041B0C1380704700BF741E00208F
:101D600000101140084B90F8202033F812309BB23D
:101D7000022B00D07047012AFCD1044A13889BB281
:101D800043F0800313807047741E00200010114040
:101D9000094B90F8202033F812309BB2022B00D070
:101DA0007047012AFCD1054AB2F840319BB2194371
:101DB000A2F84011704700BF741E002000101140AF
:101DC000094B90F8202033F812309BB2022B00D040
:101DD0007047012AFCD1054AB2F840319BB223EA90
:101DE0000101A2F840117047741E0020001011403C
:101DF000094B90F8202033F812309BB2022B01D00F
:101E0000002070471AB9054B988880B27047044B80
:101E1000988880B2704700BF741E002000000940FF
:101E200000101140094B90F8202033F812309BB27B
:101E3000022B01D0002070471AB9054B188980B2D7
:101E40007047044B188980B2704700BF741E002091
:101E50000000094000101140064B90F8202033F894
:101E600012309BB2022B00D07047002AFCD0024BEC
:101E700099817047741E002000101140084B90F8A3
:101E8000202033F812309BB2022B01D00020704783
:101E90000029FBD1012AF9D1024B5869704700BFD4
:101EA000741E002000101140074B90F8200033F8FA
:101EB00010309BB2022B00D070470029FCD10128C2
:101EC00004BF024B5A617047741E0020001011407D
:101ED000094B90F8202033F812309BB2022B01D02E
:101EE000002070470029FBD1012A0BBF034B044B94
:101EF000D88A988A80B27047741E00200010114062
:101F000000000940134B90F8200033F810309BB2CA
:101F1000022B05D0012914D002290FD059B17047E6
:101F20000128F7D1012912D002290DD00029F6D1BC
:101F3000094BDA827047094B9A827047074B9A83A4
:101F40007047064B1A837047034BDA83E7E7024B6F
:101F50005A837047741E0020001011400000094091
:101F6000134B90F8200033F810309BB2022B05D0B1
:101F7000012914D002290FD059B170470128F7D197
:101F8000012912D002290DD00029F6D1094BDA75AA
:101F90007047094B1A757047074B1A777047064B05
:101FA0001A767047034BDA77E7E7024BDA76704729
:101FB000741E00200010114000000940134B90F8DF
:101FC000202033F812309BB2022B1CD1012912D0F1
:101FD000022907D10E490F4B012A18BF0B4618885A
:101FE00080B2704779B90C490C4B012A18BF0B46D7
:101FF000188880B270470A490A4B012A18BF0B465D
:10200000188880B2704700231B88FFDE741E0020F2
:102010002C0009402C1011402000094020101140D4
:10202000280009402810114010B5194C90F820E004
:1020300034F81E0080B2022826D101291CD00229C2
:1020400007D114491448BEF1010F0CBF8C468446D9
:1020500007E0C9B911491248BEF1010F0CBF8C4607
:102060008446BCF8001003EA02008AB222EA0303A5
:102070000343ACF8003010BD0A490B48BEF1010F14
:102080000CBF8C468446ECE700231B88FFDE00BFB4
:10209000741E00202C1011402C000940201011400B
:1020A00020000940281011402800094010B41B4CA2
:1020B00090F8200034F810309BB2022B04D1012993
:1020C00026D002291ED0B9B1002134F810309BB2BD
:1020D000022B02D05DF8044B70470B8823F4406359
:1020E0001B041B0C0B80002AF4D00B885DF8044BFA
:1020F0009BB21A430A80704709490A4B012818BF4E
:102100001946E2E70849094B012818BF1946DCE7E0
:102110000749084B012818BF1946D6E7741E00204E
:1021200020101140200009402C1011402C000940C3
:102130002810114028000940164B90F8202033F851
:1021400012309BB2022B21D1012917D0022907D1CD
:102150001149124B012A18BF0B46188880B27047EC
:10216000A1B903F180430E4903F5881303F58153A8
:10217000012A18BF0B46188880B2704709490A4BDC
:10218000012A18BF0B46188880B2704700231B88AD
:10219000FFDE00BF741E00202E0009402E101140EB
:1021A000220009402A0009402A101140144B90F8DF
:1021B000202033F812309BB2022B1DD1012915D0FB
:1021C000022905D10F49104B012A18BF194605E015
:1021D00091B90E490E4B012A18BF19460B886FEAB8
:1021E00043436FEA53439BB20B80704709490A4B44
:1021F000012A18BF1946F1E700231B88FFDE00BF44
:10220000741E00202E1011402E0009402210114093
:10221000220009402A1011402A000940174B90F86B
:10222000202033F812309BB2022B24D1012919D07F
:10223000022908D1124B1349012A18BF0B464FF44B
:1022400080421A807047B1B903F180430E4903F50B
:10225000881303F58153012A18BF0B464FF48042BF
:102260001A807047094B0A49012A18BF0B464FF4E0
:1022700080421A80704700231B80FFDE741E0020FE
:102280002E1011402E000940220009402A10114052
:102290002A0009400A4B90F8202033F812309BB2F4
:1022A000022B00D0704701233AB1064AD08E03FAC0
:1022B00001F1014389B2D1867047034AF6E700BFB6
:1022C000741E002000101140000009400B4B90F8D4
:1022D000202033F812309BB2022B00D070474AB155
:1022E00001220748C38E02FA01F19BB223EA0101E1
:1022F000C186704701220348F4E700BF741E002026
:1023000000101140000009400A4B90F8202033F8DB
:1023100012309BB2022B00D0704701233AB1064A1B
:10232000108F03FA01F1014389B211877047034A04
:10233000F6E700BF741E00200010114000000940A5
:102340000B4B90F8202033F812309BB2022B00D0B8
:1023500070474AB101220748038F02FA01F19BB28C
:1023600023EA01010187704701220348F4E700BF17
:10237000741E00200010114000000940134B90F81B
:10238000202033F812309BB2022B00D0704710B5DA
:102390005AB901230E4C0F4824F81120428F03FA3A
:1023A00001F1114389B2418710BD4FF0000E0123A6
:1023B0000748094A01F10A0C20F81CE003FA01F170
:1023C000538F194389B2518710BD00BF741E00207E
:1023D0007816002000000940001011400B4B90F8C7
:1023E000202033F812309BB2022B00D070474AB144
:1023F00001220748438F02FA01F19BB223EA01014F
:102400004187704701220348F4E700BF741E002093
:10241000001011400000094020B9054BB3F84000FE
:1024200080B27047034BB3F8400080B2704700BFE2
:1024300000000940001011400E4B90F8202033F8A6
:1024400012309BB2022B00D07047012342B903FA2D
:1024500001F1C943084AC1F30901A2F846107047C7
:1024600003FA01F1C943054AC1F30901A2F8461074
:10247000704700BF741E002000000940001011408A
:102480000E4B90F8202033F812309BB2022B00D074
:102490007047012342B903FA01F1C943084AC1F365
:1024A0000901A2F84810704703FA01F1C943054A2F
:1024B000C1F30901A2F84810704700BF741E002044
:1024C00000000940001011400E4B90F8202033F816
:1024D00012309BB2022B00D07047012342B903FA9D
:1024E00001F1C943084AC1F30901A2F84A10704733
:1024F00003FA01F1C943054AC1F30901A2F84A10E0
:10250000704700BF741E00200000094000101140F9
:102510000A4B90F8202033F812309BB2022B01D0E6
:102520000020704722B9064BB3F84C0080B27047C8
:10253000044BB3F84C0080B2704700BF741E0020FB
:10254000000009400010114020B9054BB3F85400B9
:1025500080B27047034BB3F8540080B2704700BF9D
:10256000000009400010114020B9054BB3F8560097
:1025700080B27047034BB3F8560080B2704700BF7B
:10258000000009400010114020B9054BB3F8580075
:1025900080B27047034BB3F8580080B2704700BF59
:1025A000000009400010114020B9054BB3F85A0053
:1025B00080B27047034BB3F85A0080B2704700BF37
:1025C00000000940001011400A4B90F8202033F819
:1025D00012309BB2022B01D00020704722B9064B6B
:1025E000B3F85C0080B27047044BB3F85C0080B273
:1025F000704700BF741E0020000009400010114009
:10260000084B90F8202033F812309BB2022B00D0F8
:1026100070471AB9044BA3F85C107047034BA3F83A
:102620005C107047741E002000000940001011402B
:102630000A4B90F8202033F812309BB2022B01D0C5
:102640000020704722B9064BB3F85E0080B2704795
:10265000044BB3F85E0080B2704700BF741E0020C8
:102660000000094000101140084B90F8202033F87A
:1026700012309BB2022B00D070471AB9044BA3F85A
:102680005E107047034BA3F85E107047741E002065
:10269000000009400010114020B9054BB3F860005C
:1026A00080B27047034BB3F8600080B2704700BF40
:1026B0000000094000101140084B90F8202033F82A
:1026C00012309BB2022B00D070471AB9044BA3F80A
:1026D00064107047034BA3F864107047741E002009
:1026E00000000940001011400A4B90F8202033F8F8
:1026F00012309BB2022B01D00020704722B9064B4A
:10270000B3F8680080B27047044BB3F8680080B239
:10271000704700BF741E00200000094000101140E7
:10272000084B90F8202033F812309BB2022B00D0D7
:1027300070471AB9044BA3F868107047034BA3F80D
:1027400068107047741E00200000094000101140FE
:10275000064B90F8202033F812309BB2022B04D1A4
:10276000012A04BF024BA3F86A107047741E0020B0
:1027700000101140084B90F8200033F810309BB245
:10278000022B01D0002070470028FCD0034BB3F887
:102790006A0080B2704700BF741E00200010114014
:1027A0000A4B90F8202033F812309BB2022B01D054
:1027B0000020704722B9064BB3F86C0080B2704716
:1027C000044BB3F86C0080B2704700BF741E002049
:1027D0000000094000101140084B90F8202033F809
:1027E00012309BB2022B00D070471AB9044BA3F8E9
:1027F0006C107047034BA3F86C107047741E0020D8
:102800000000094000101140084B90F8202033F8D8
:1028100012309BB2022B00D070471AB9044BA3F8B8
:102820006E107047034BA3F86E107047741E0020A3
:1028300000000940001011404FF0000C134B90F8BD
:10284000202082B0ADF806C033F812309BB2022BC4
:1028500004D0BDF8060080B202B0704762B181B109
:102860000B4B03EB41010B889BB2ADF80630BDF872
:10287000060080B202B0704729B1064B03EB41015C
:10288000F1E70549EFE70549EDE700BF741E0020B9
:102890006E1011406E000940601011406000094048
:1028A0000B4B90F8202033F812309BB2022B00D053
:1028B000704742B1074B03EB41010B889BB243F4D5
:1028C00000530B807047044B03EB4101F5E700BF59
:1028D000741E00206E1011406E0009400D4B90F8E0
:1028E000202033F812309BB2022B00D0704742B93F
:1028F000094A32F811309BB243F4007322F81130C8
:102900007047064A32F811309BB243F4007322F844
:1029100011307047741E00206E0009406E10114087
:102920000B4B90F8202033F812309BB2022B00D0D2
:1029300070474AB1074B03EB41010B8823F4007346
:102940001B041B0C0B807047034B03EB4101F4E7A6
:10295000741E00206E1011406E000940174B90F855
:10296000202033F812309BB2022B00D070474AB9B6
:10297000D9B9134AB2F860309BB243F48073A2F81D
:102980006030704741B90F4AB2F860309BB243F4EF
:102990008073A2F8603070470B4A32F811309BB256
:1029A00043F4807322F81130E0E7084A32F811301E
:1029B0009BB243F4807322F811307047741E0020DC
:1029C00000000940001011406E1011406E000940D7
:1029D000104B90F8200033F810309BB2022B00D03F
:1029E000704770B191B10C4B03EB41010B8823F0A0
:1029F00003031B041B0C0B800B889BB21A430A8039
:102A0000704729B1054B03EB4101EFE70449EDE7BE
:102A10000449EBE7741E00206E1011406E0009405F
:102A200060101140600009400E4B90F8200033F810
:102A300010309BB2022B00D0704748B169B10A4BED
:102A400003EB41010B889BB223EA02020A80704724
:102A500029B1064B03EB4101F4E70549F2E70549CB
:102A6000F0E700BF741E00206E1011406E00094098
:102A700060101140600009400B4B90F8202033F8A3
:102A800012309BB2022B00D0704742B1074A890036
:102A90000A4413889BB243F4007313807047044ABE
:102AA00089000A44F5E700BF741E00208C10114015
:102AB0008C0009400B4B90F8202033F812309BB269
:102AC000022B00D070474AB1074A89000A44138894
:102AD00023F400731B041B0C13807047034A890006
:102AE0000A44F4E7741E00208C1011408C00094049
:102AF0000B4B90F8202033F812309BB2022B00D001
:102B0000704742B1074A89000A4413889BB243F4D4
:102B1000807313807047044A89000A44F5E700BFB8
:102B2000741E00208C1011408C000940094B90F855
:102B3000200033F810309BB2022B00D0704720B138
:102B4000054B89000B441A807047044B89000B44E5
:102B5000F9E700BF741E00208E1011408E0009405E
:102B6000084B90F8202033F812309BB2022B01D092
:102B700000207047012AFBD1034BB3F8400180B21B
:102B8000704700BF741E002000101140012807D1BB
:102B9000044AB2F802319BB243F48043A2F80231F6
:102BA000704700BF00101140012808D1044AB2F854
:102BB000023123F480431B041B0CA2F8023170473E
:102BC00000101140124B5A6870B911051CD5EFF373
:102BD0001081012282F310885A6822F400625A6040
:102BE0005B6881F310887047D2040DD5EFF3108134
:102BF000012282F310885A6822F480525A605B687E
:102C000081F310880020704740F2DD50704700BF0C
:102C10000040084000283BD180223C4B1881A3F89B
:102C20006020A3F87000A3F87200A3F87400A3F862
:102C30007600A3F87800A3F87A00A3F87C00A3F844
:102C40007E00A3F88000D886188758871886588693
:102C50001A8822F010021204120C1A801A8822F02C
:102C600020021204120C1A801A8822F001021204A7
:102C7000120C1A801A8822F040021204120C1A80D8
:102C8000A3F84600A3F84800A3F84A0000207047C4
:102C9000002280211E4B00201A81A3F86010A3F8A7
:102CA0007020A3F87220A3F87420A3F87620A3F86C
:102CB0007820A3F87A20A3F87C20A3F87E20A3F83C
:102CC0008020DA861A875A871A865A86198821F050
:102CD00010010904090C1980198821F02001090448
:102CE000090C1980198821F001010904090C1980C7
:102CF000198821F040010904090C1980A3F8462025
:102D0000A3F84820A3F84A20704700BF00000940FC
:102D10000010114010B50446FFF77CFFACB91B4B07
:102D20005A68120528D45A681405C2F3C02026D464
:102D3000EFF31081012282F310885A6842F4006296
:102D40005A605B6881F3108810BD012C1AD10F4BBB
:102D50005A68D10410D45A68C2F30030D2040ED499
:102D6000EFF3108184F310885A6842F480525A605D
:102D70005B6881F3108810BD40F2DC5010BD4FF449
:102D8000BC6010BD40F2E25010BD00BF00400840E2
:102D9000F0B460B3012801D0F0BC704791F9102065
:102DA000CB7D02F160441B01DBB204F5614484F881
:102DB0000033394C394B44F8221002F1C00153F86A
:102DC00021406FF3104443F8214053F82130BFF302
:102DD0005F8F53099B0002F01F0203F16043904094
:102DE00003F56143C3F880011860F0BC70472C4BB9
:102DF0002C4DD3F80024284E60F30412C3F80024AD
:102E00000A7D91F90D301201244CEF18D2B287F8E7
:102E1000002303F1C00246F8231054F8227060F337
:102E2000104744F8227054F82220BFF35F8F4FF010
:102E3000010C5A09920003F01F0302F1604202F5EF
:102E400061420CFA03F3C2F880311360CB7C91F934
:102E50000C201B01DBB2154485F8003302F1C003DE
:102E600046F8221054F8231060F3104144F8231060
:102E700054F82330BFF35F8F53099B0002F01F0209
:102E800003F160430CFA02F203F56143C3F88021B9
:102E90001A60F0BC704700BFF41E002000600040C4
:102EA0000000094000E100E0012104F0B9BB00BFCF
:102EB0004FF47A7104F0B4BBEFF30383103B094A7B
:102EC0005BB2C03352F823106FF3104142F8231065
:102ED00052F82330044B1B889BB2012B00D1704762
:102EE00001F04ABA00600040741E0020EFF3038333
:102EF000103B094A5BB203F1C00152F821006FF3A5
:102F0000104042F8210052F82120044A52F82330A0
:102F1000987800F0EBBA00BF00600040F41E00207B
:102F2000EFF30383103B064A5BB2C03352F8231021
:102F30006FF3104142F8231052F82330704700BF5E
:102F400000600040EFF30383103B064A5BB2C033DE
:102F500052F823106FF3104142F8231052F8233037
:102F6000704700BF006000402DE9F043012A0CBF0C
:102F7000784B794B0446B3F840E0B3F84660B3F8B9
:102F80004880B3F84A70B3F830C0D88E1D8F5B8F7D
:102F90001FFA85F99DB200231FFA8EFE1EF47F4FA3
:102FA000238083B0B6B21FFA88F8BFB21FFA8CFC38
:102FB00080B20B800ED00EEA0C0313F4804F0CD0BD
:102FC000012A4BF6FF720CBF624B634BA3F8402003
:102FD0001223238003B0BDE8F08313F4004F0DD11A
:102FE00013F4005F17D0012A4DF6FF720CBF594B46
:102FF000594BA3F8402013232380EBE7012A47F61F
:10300000FF720CBF534B544BA3F840201123238075
:1030100003B0BDE8F08313F4805F12D1304013F4A5
:1030200080761BD010F0010F18D0012A40F2FE323A
:103030000CBF484B484BA3F84620012323800B804C
:10304000C8E7012A4EF6FF720CBF424B424BA3F871
:10305000402014232380A1F800E0BBE713F4806C28
:1030600007EA05070ED0FD070CD5012A40F2FE3213
:103070000CBF384B384BA3F84A2002220123228090
:103080000B80A7E713F4007E08EA09050FD015F0BE
:10309000010F0CD0012A40F2FE320CBF2D4B2E4BFB
:1030A000A3F848200322012322800B8092E71B050E
:1030B0001DD466B1C343012A0CBF264A264AC3F376
:1030C0000903A2F8463001232380088082E7BCF17F
:1030D000000F2DD0FB43012A0CBF1E4A1E4AC3F32A
:1030E0000903A2F84A30022323800F8072E71046BA
:1030F00001910092FFF790F90199009A08804FF230
:10310000FF70012A0CBF134B134BA3F8400015238B
:1031100023800B8803F00703062B7FF45BAF104678
:10312000009100F0F3F90023009923800B8051E710
:10313000BEF1000F3FF44EAFEB43012A0CBF054A2E
:10314000054AC3F30903A2F84830032323800D8006
:1031500040E700BF001011400000094010B50446D0
:1031600000F0D4F92046FFF7EFF90246094B20465C
:103170001A80FFF7F9F90246074B20461A80FFF73D
:1031800003FA0246054B20461A80FFF70DFA044B5E
:10319000188010BD401A0020421A0020341A002066
:1031A000361A002008B590F82000FFF735F900F036
:1031B0007000A0F13000B0FA80F0400908BD00BFF7
:1031C00038B50F4D04462B8803F47F43B3F5407F99
:1031D0000AD006D8B3F5807F06D0B3F5007F03D0C0
:1031E00038BDB3F5806FFBD120460021FEF734FED9
:1031F00029882046BDE83840090AFEF72DBE00BFE9
:10320000601A002010B5044690F8200000F06EF916
:1032100094F82000BDE8104000F058B90B46022297
:1032200001461846FFF7D4BB02220021FFF7D0BBAE
:103230002DE9F0411D4693F8203080460F46144694
:1032400013BB46083DD002EB460634F8022B394644
:103250002846FEF757FEB442F7D118F0010F2BD0E5
:10326000394628460022FEF721FF16F8012B394681
:103270002846FEF775FE28464FF480623946FEF771
:1032800015FF3046BDE8F081860818D002EB8606AF
:1032900054F8042B39462846FEF706FEB442F7D10F
:1032A00018F0020F1BD118F0010F0CD14FF400627F
:1032B00039462846FEF7FAFE3046BDE8F08116464C
:1032C000EEE71646C9E7394628460022FEF7EEFE2D
:1032D0003946284616F8012BFEF742FEE6E7394646
:1032E00028464FF48062FEF7E1FE3946284636F85C
:1032F000022BFEF707FED6E72DE9F0411E4693F8B4
:10330000203080460F4614468BB9450833D002EB77
:10331000450539463046FEF7DBFD24F8020BAC428A
:10332000F7D118F0010F28D12846BDE8F0818508B3
:103330001CD002EB850539463046FEF79FFD44F868
:10334000040BAC42F7D108F00308B8F1000FEBD042
:1033500039463046FEF792FDA84405F8010B454575
:103360004FEA1020F9D12846BDE8F0811546B8F1A2
:10337000000FD9D0ECE71546D3E739463046FEF7C3
:10338000A7FD05F8010B2846BDE8F0812DE9F041C5
:103390000446154610460F462146FEF72DFC2146F1
:1033A0002846FEF793FF21462846FEF7C9FF21462F
:1033B0002846FFF713F821462846FEF789FC00212E
:1033C0002846FEF7FBFD00F00F00844223D0214683
:1033D0002846DFF8548000F067FA21462846FFF7B8
:1033E0005FFA58F82460A6B10E4B214653F82430FA
:1033F00028463361B784FFF71FFA58F824104B684A
:10340000F0841BB10022084611469847002348F873
:103410002430BDE8F081002328461A461946FEF7FD
:103420002DFCD4E7681700205016002010B5064C7C
:10343000238803B910BDFFF7A9FB6420FFF734FD13
:103440000023238010BD00BF4C1600200122024B38
:103450001A80FFF7A9BB00BF4C16002030B9074AFD
:1034600013889BB243F0100313807047044A1388FB
:103470009BB243F010031380704700BF0000094067
:103480000010114038B9054A138823F010031B04BB
:103490001B0C13807047024AF6E700BF000009408A
:1034A0000010114030B9074A138E9BB243F4804399
:1034B00013867047044A138E9BB243F480431386ED
:1034C000704700BF000009400010114038B9054A9C
:1034D000138E23F480431B041B0C13867047024A8F
:1034E000F6E700BF00000940001011404BF6FF72E4
:1034F00018B9044BA3F840207047034BA3F84020B1
:10350000704700BF00000940001011404FF6F772ED
:1035100018B9044BA3F840207047034BA3F8402090
:10352000704700BF000009400010114040B9094A2F
:10353000B2F860309BB243F00403A2F860307047E9
:10354000054AB2F860309BB243F00403A2F8603041
:10355000704700BF0000094000101140F8B92E4B21
:103560001A8892B242F480621A801A885205FCD5F9
:1035700005224FF480614FF41D40C3F8F0201A88F3
:1035800022F020021204120C1A801A8892B242F021
:1035900001021A801984198599851886704710B51B
:1035A0001E4C0120FFF780FCE38F012023F0010374
:1035B0001B041B0CE387FFF77BFCE38F23F0020364
:1035C0001B041B0CE387238823F020031B041B0C24
:1035D000238023889BB243F001032380B4F8023197
:1035E0009BB243F48043A4F80231E388DB07FCD5A7
:1035F00040F607734FF4006200204FF41D416380D2
:10360000E38F9BB243F48073E38722842285A285F3
:10361000A4F84000218610BD0000094000101140B0
:1036200088B90C4AB2F8603023F003031B041B0C6A
:10363000A2F86030B2F860309BB231B943F00103B8
:10364000A2F860307047044AECE743F00203A2F8A6
:10365000603070470000094000101140104B90F896
:1036600000C033F81C309BB2022B01D00020704701
:103670000C4B1B88012B10D000B54FF0010E8FB002
:10368000094B10466A468DF820C0A3F800E000F010
:1036900019FA00200FB05DF804FBD520704700BF79
:1036A000741E0020301A00205C1A002030B5204B18
:1036B0000446007899B033F810308DF848009BB27A
:1036C000022B02D0002019B030BD0D4671B1194B4C
:1036D0001B88012B27D00124174B294610460AAA24
:1036E0001C8000F0ABF9002019B030BD002AEED1EB
:1036F000A3880AA8CBB1FFF797FD00259122217876
:1037000004AB0C348DF8041094E8030083E8030044
:10371000082001A90395ADF808508DF8072000F0A6
:10372000F7F82846CFE7D520CDE700F0CBF8E4E75F
:10373000741E0020301A00205C1A0020C378082B69
:103740001DD810B54FEA430C0E4C5FFA8CF314F8F9
:1037500003E00D4CCEEBCE0304EBC303DA6000783C
:103760001A610A4A83F8200052F82C20A3F81EE0C0
:103770001846BDE8104099605A6000F0ADBC0020CA
:10378000704700BFD47D0100441C00208001002050
:10379000F0B590F803E0BEF1080F3BD84FEA4E0EAB
:1037A00004460EF101031C48DBB210F803C01B4BAA
:1037B000CCEBCC00BCF1060F03EBC00012D10A2702
:1037C00091F800E0164E654686F808E04978C3F89F
:1037D00058617172C3F8607194F803E030224FEAC7
:1037E0004E0E05E0026181604FEACC021FFA8CF5B3
:1037F000A2EB0C0C227803EBCC0383F82020094ABF
:103800000EF1010E52F82E20DD835A60BDE8F04023
:1038100000F062BC0020F0BDD47D0100441C0020FB
:103820000802002080010020092900D97047FEF716
:103830006BBD00BF092901D90020704708B5FEF70C
:10384000FBFF00F0030008BD09290FD810B541B1F6
:103850000446FEF731FF2046FEF7A2FFC0F30A0040
:1038600010BDFEF7E5FEC0F30A0010BD0020704752
:10387000092901D90020704710B50446FEF71CFF46
:103880002046FEF731FF00F0100010BD092901D9D4
:103890000020704710B50446FEF70EFF2046FEF7E5
:1038A00023FF00F4404010BD092900D9704738B506
:1038B0000C460546FFF712F821462846BDE8384079
:1038C000FFF72EB8092900D970470122FFF780B809
:1038D000092900D9704738B50C460546FEF78CF922
:1038E00021462846BDE838400222FFF79DB800BFB8
:1038F00008B5FEF797FA00F00700013880B20328F8
:1039000096BF024B002033F8100008BDE47D010093
:1039100030B58E460E4D2B7803EBC30CEA1805EB41
:103920008C0C01330CF10C0C9070DCB2BEE80F0073
:10393000ACE80F00BEE80F00ACE80F00DEF8003086
:10394000092CCCF800308ABF00232C702B7030BDBE
:10395000C81A002000F066B938B5054690F8200076
:10396000FEF7DCF928460121FEF712FA05200024B3
:10397000FFF79EFA2846FEF73BFA820709D10B2093
:10398000FFF796FA2846FEF733FA0B348307A4B202
:103990000DD001340120A4B2FFF78AFAB4F5167FE6
:1039A000E8D328460121FEF70BFA002038BD28464F
:1039B0000121FEF705FA012038BD00BF30B50446ED
:1039C0008BB0FFF7C9FF06212046FEF7E1F92A2058
:1039D000FFF76EFA2046FFF7C3F80546062120469A
:1039E000FEF7EEF91620FFF763FA15F480751FD085
:1039F00018212046FEF7CCF92A20FFF759FA204675
:103A0000FFF7AEF8054618212046FEF7D9F994F8DD
:103A1000202015F4007F8DF8042014BF022201221B
:103A2000054B0B2001A91A80FFF772FF0BB030BDC8
:103A3000014B1D800BB030BDB817002070B50125BB
:103A4000144600221C4B1D801C4B18601C48202370
:103A5000016011462046FEF711F900212046FEF7CD
:103A6000DDFB00212046FEF72FFD002122460846FF
:103A700000F048FD0128054605D020F00206B6B248
:103A80005EB1284670BD20460021FFF7CDFE2046DE
:103A90000021FFF717FF284670BD31462046FEF78C
:103AA0006DFC31462046FFF7BFFE20463146FFF74A
:103AB00009FF284670BD00BF301A0020681700209B
:103AC0009017002038B501240D460F4900230C80C3
:103AD00014460E4A194610600D481A4605602046E5
:103AE000FEF7CCF820460021FEF798FB2046002187
:103AF000FEF7D0FB20460021FFF796FE2046BDE8EA
:103B000038400021FFF7DEBE301A00206817002081
:103B10009017002038B50C4600210546184A194B6D
:103B2000204611801980FEF759FC00212046FEF73F
:103B3000CDFB00212046FEF703FC94F82030002145
:103B4000012B0CBF4FF400624FF480622046FEF759
:103B5000ADFA25F00203052B07D0082D0AD094F802
:103B60002000BDE83840FFF7E1BC2046BDE8384002
:103B7000FFF75ABB2046BDE838400021FEF73CB8AD
:103B8000301A00205C1A0020704700BF704700BF49
:103B900003464FF0010C00B5074A8BB093F8203074
:103BA000032001A9A2F800C08DF80430FFF7B0FE91
:103BB0000BB05DF804FB00BFBA170020034600B548
:103BC0008BB093F82030042001A98DF80430FFF762
:103BD0009FFE0BB05DF804FB034600B58BB093F875
:103BE0002030052001A98DF80430FFF791FE0BB0BD
:103BF0005DF804FB704700BF094B1A88012A00D00A
:103C00007047002200B58BB090F820C001A90620B3
:103C10008DF804C01A80FFF77BFE0BB05DF804FB43
:103C2000BA17002030B5764C91B094F8513094F822
:103C300050209A4201D111B030BD04EBC301486855
:103C400034F833208078013A49888DF82800142A06
:103C50001BD8DFE802F0736D671A1A1A1A1A1A1ABB
:103C60001A1A1A1A1A1A590B1A4C2800654B5B6A51
:103C7000002B00F08D80002202A811460190984789
:103C80000198FFF7BFFA94F851305F4A0133DBB275
:103C9000A2FB0312D20802EB8202A3EB420384F8D8
:103CA000513011B030BD11F0070559D1574B1B8869
:103CB000012B00F09080564B1B8813F0600F03F02F
:103CC000600200F08C805348534A544912880380A4
:103CD0000B8842808380524A4A4B1288DB6AC2803A
:103CE00013B1294602AA984794F85130CDE701F064
:103CF0007002402A2ED027D8102AC6D102A800F080
:103D000033FF94F85130C0E7FEF708F89DF828001B
:103D100000F0D2FF402802A835D000F053FF94F8FD
:103D20005130B2E702A800F0FDFA94F85130ACE748
:103D300002A800F0FDFA94F85130A6E702A800F0BE
:103D4000C1FA94F85130A0E7602A03D001F0500185
:103D500050299AD102A800F079FF94F8513094E7E5
:103D600001F00503012B33D0052D31D0284B1B88E2
:103D700013F0600FA7D1013D042D3AD8DFE805F01C
:103D8000221C100A160000F00FFF94F851307CE757
:103D900002A876E702A801F0B1FB94F8513074E76D
:103DA00002A801F0B7F994F851306EE702A801F0CB
:103DB000B3F994F8513068E702A801F045FB94F894
:103DC000513062E702A801F057F894F851305CE7EF
:103DD000FFF7C4F9CAE702A8FFF7F2F96BE7114B46
:103DE000114902A81A800A8001F006F894F85130AF
:103DF0004BE7072002A9FFF78DFE94F8513044E706
:103E0000641A0020BC190020CDCCCCCC5E1A002056
:103E1000401A0020381A0020421A0020341A0020CC
:103E2000361A00205C1A0020301A002038B50F4BDB
:103E3000C58B044643F82500FFF7B4F9012806D0E6
:103E4000284622460721FFF7A1FA002038BD29465F
:103E50002046FFF70DFD20B9284600F0DFFB0020CB
:103E600038BD284600F020FB002038BD5016002049
:103E7000002110B4054C064B21804FF4FF72054819
:103E80005DF8044B198011F06CBD00BFBA19002019
:103E9000321A0020BC1700208446044B4FF4FF72F6
:103EA00000210348A3F800C011F05BBDBA1900203F
:103EB000BC170020FF22044B03F1200123F8022F3E
:103EC0008B421A84FAD17047EE190020014B9B688F
:103ED00018797047BC19002000B5134B996891F808
:103EE00000E091F802C00EEB0102C9784CEA012C07
:103EF000E64514D21FFA8EF34FF0000E51780429D4
:103F000004D19178814208BF92F803E011780B4404
:103F10009BB263450A44F1D370465DF804FB4FF051
:103F2000000E70465DF804FBBC1900202DE9F0413D
:103F3000244B9B68DD7893F802E01C780EEB052E8D
:103F40001FFA8EFE7445234434D20026A2B2B04636
:103F500034461D4F1BE0BCF1050F12D1B44210D204
:103F60009D7893F902C005F00F054FEADC7C05EB64
:103F70000C1508EB040C5FFA8CFC013427F815C013
:103F8000A4B21D782A4492B272452B4412D293F8FF
:103F900001C0BCF1040FDED19D7885420CD093F8AE
:103FA00004C0C4441FFA8CF81D782A44D2B272456A
:103FB0002B44ECD3BDE8F081DD788D42EFD11E7942
:103FC000F2E700BFBC190020F0190020044B18884C
:103FD00020B1044B9B68D879C0F34010704700BFF4
:103FE000BA190020BC190020024B9B68D879C0F395
:103FF00080107047BC190020092800D9704738B5D7
:104000000446154600F04AFB032807D8431E022B3E
:1040100022D8DFE803F00C02130038BDFF2814D1CA
:104020002A462046BDE838401521FFF7AFB92A4699
:104030002046BDE83840042100F0A8BB2A462046AF
:10404000BDE838400521FFF7A1B92A462046BDE862
:1040500038400721FFF79AB92A462046BDE8384084
:10406000032100F093BB00BF092800D9704770B549
:1040700004460E46154601461046FEF727F92A4625
:104080003146204600F03EFA022813D009D82146D6
:104090002846FEF773F921462846BDE87040FFF731
:1040A000C3BBFF2810D12A462046BDE87040152129
:1040B000FFF76CB921462846FEF7ECF82146284662
:1040C000BDE87040FFF7B0BB2A462046BDE870400F
:1040D0000721FFF75BB900BFC18BC1B10D4B10B514
:1040E00053F82130044623B1FFF7D0FBB0F5404F21
:1040F0000BD12046FFF756F8012801D0FF2010BD54
:104100002046BDE81040FFF791BED52010BDFF202E
:10411000704700BF501600200021084B084A09488C
:10412000C3E90522C3E90722C3E90922C3E9001153
:10413000C3E90211D8621961704700BFBC190020A1
:10414000893B00008D3B00004A6830B4D2E9005141
:10415000D468D1B190680E4BC3E90054C3E9021092
:1041600015690C4C0C480D49127DC3E90454C3E990
:1041700006010B4C0B490C48C3E908410B4983F875
:104180003020C3E90A0130BC704791680846E2E775
:10419000BC1900201D420000913B0000F93B0000CB
:1041A000BD3B0000D93B0000F53B00003956000044
:1041B0002DE9F047047894422BD2064617469A46DA
:1041C0004FF000094FF0FF0808E0BCF1050F16D0D2
:1041D00095F800C06444A4B2A7420DD9351995F8EA
:1041E00001C0BCF1040FF0D195F800C095F805901E
:1041F0006444A4B2A742F1D84046BDE8F0874A46DD
:104200005146284600F096FB002818BF4FF00008E2
:10421000DEE74FF0FF084046BDE8F087F0B5274BDA
:1042200004461A880E46012A8DB035D003AFC02E41
:10423000234B24D09D68002D3AD002226A70DB689F
:104240001BB107225A7005B9FEE7EB78AA7894F8FB
:10425000200002EB032292B2019200F0F1FB234610
:104260003146019A2846FFF7A3FF94F820303946DB
:1042700001208DF80C30FFF74BFB0DB0F0BDD3E9FA
:104280000225CAB107215170DB68002BDBD0022266
:104290005A70002DD8D0D8E7002290F8201003AF34
:1042A0008DF80C10062039461A80FFF731FBBEE767
:1042B000DB68002BC5D1C7E72B46E6E7BA1700201D
:1042C000BC190020CB0711D50021024610B50446C9
:1042D000084600F0E3F9032812D009D8022819D0C3
:1042E0002046BDE810400021FDF7F0BF00F054BAB1
:1042F000FF2815D12146BDE810400720FFF70ABC72
:1043000020460021FDF78AFF2146BDE81040052028
:10431000FFF700BC2046BDE810400021FFF7D2BAED
:1043200010BD00BFCB0700D5704700F067BA00BFD3
:10433000CB0717D50021024610B50446084600F009
:10434000E1F8022811D005D82046BDE81040002130
:10435000FEF744B8FF2807D12146BDE810400720EA
:10436000FFF7D8BB00F076BA10BD2046BDE810407C
:104370000021FFF7A7BA00BF38B5EFF30383124A55
:10438000103B5BB252F82350104CA878FFF74EF860
:1043900094F85030D80004EBC3035D60811CAA7808
:1043A00018462144FEF7E0FD94F85030084A0133E6
:1043B000DBB2A2FB0312D20802EB8202A3EB4203A0
:1043C00084F8503038BD00BFF41E0020641A00206D
:1043D000CDCCCCCC2DE9F0410446154610460F4615
:1043E0002146FDF709FC21462846FDF76FFF2146CF
:1043F0002846FDF7A5FFDFF84C8021462846FDF74B
:10440000EDFF21462846FDF763FC58F82460A6B16D
:104410000B4B214653F8243028463361B784FEF70E
:104420000BFA0022014658F824004368F184114633
:10443000C4839847002348F82430BDE8F08100BFCA
:10444000681700205016002091F820104FEAD00C79
:10445000104A01EB810101EB81010CF0100C00F01E
:104460000F00012302EB81024CEA000C03E00A2B4F
:1044700002F10A020BD0518998B2012903F101031C
:10448000F5D1918901F01F018C45F0D17047FF20D3
:10449000704700BFA01600200020704708B5FDF748
:1044A00023FCC0F3C01008BD092800D9704770B5BF
:1044B0000446114B014653F8205028462E69FDF75B
:1044C0009BFB0E4BAA6843F824600D4B214643F832
:1044D00024202846FDF7F8FF21462846FDF7ACFFCB
:1044E00020462A460021FFF7BFFD21462846BDE8A9
:1044F0007040FFF7E7B900BF501600206817002092
:10450000901700202DE9F04F092883B058D81546A0
:1045100050EA010204460E4666D00A4600230146D0
:104520002846FDF77DFBFF284AD021462846FDF7A7
:104530001DFA0746DFF8DC9021462846FFF784F98C
:1045400059F82430BB46BB422AD94FF00208214615
:104550002846FFF76FF90346DFF8BCA0214628463E
:104560000193FDF749FB2B46314638465AF8242083
:10457000FEF75EFE59F824304AF824009B4525D802
:10458000DB1B49F8243021462846FDF79DFF019B9F
:1045900003F00303012B31D0404603B0BDE8F08F98
:1045A00043B39FB2B7FBF0F800FB18701FFA80F816
:1045B000B8F1000F2AD1002C08BF4FF00208C6E75F
:1045C0004FF0FF08404603B0BDE8F08F00233146AE
:1045D000284649F82430FDF7AFFD0304D3D4314613
:1045E0002846FDF7E3FDCEE7202311462846FDF7D8
:1045F00017FB98E71F464FF00108A8E72846214619
:10460000FFF760F9404603B0BDE8F08F4FF00108B6
:104610009DE700BF6817002090170020092800D9E7
:1046200070471B4B70B553F8206004460146304676
:104630003569FDF7E1FA0023164AB16842F82450C3
:10464000154A304642F8241021461A46FDF716FB5B
:1046500021463046FFF7F8F84DB1B5FBF0F200FB0C
:10466000125595B92146304692B2FDF71DFB214601
:104670003046FFF727F921463046FDF70BFE21466D
:104680003046BDE87040FFF7CFB80132EAE700BF1F
:1046900050160020681700209017002009282DE9E7
:1046A000F04734D8164604460A4689460023014698
:1046B0003046FDF7B5FAFF2829D0324FC0F30B057D
:1046C00021463046FFF7C0F857F82430AA46AB42DF
:1046D0002DD33CD005B3B5FBF0F300FB135080B2F3
:1046E000002847D14FF002082846274D3346494657
:1046F00055F82420FEF700FE45F8240057F8243032
:104700004046A3EB0A0347F82430BDE8F0874FF09A
:10471000FF084046BDE8F08721463046FDF76CFAB9
:104720004FF0010849463046FDF778FDE6E721469F
:104730003046FDF761FA57F824304FF003089AB27B
:10474000924647F82450002DECD01546CCE74CB9E2
:10475000B5FBF0F300FB135080B218B92A464FF0B6
:104760000208F0E721463046FDF746FA4FF0000810
:104770002A46E8E721463046FDF73EFA4FF00108A9
:10478000B2E700BF6817002090170020092800D961
:104790007047FFF71FBE00BF2DE9F8430124804694
:1047A0000E462746DFF8509002E001340A2C1AD05A
:1047B00007FA04F31E42A5B2F7D029464046FDF79A
:1047C00083FE59F82430002BEFD029464046FFF7EE
:1047D0004FF8102809D04246002128460134FFF73F
:1047E0000BFC0A2CE4D1BDE8F883284642460021A0
:1047F000FFF73AFCD9E700BF501600202DE9F84337
:10480000012480460D462746DFF8449007FA04F35A
:104810001D42A6B209D059F8243033B13146404682
:10482000FFF734F8B0F5404F04D001340A2CEDD135
:10483000BDE8F8834046FDF76BFE10F4004F42469A
:10484000304614BF05210721FEF7A0FDEDE700BFAC
:10485000501600202DE9F047012406460D46274654
:10486000DFF8C890DFF8C88007FA04F31D421FFA8A
:1048700084FA25D059F8243013B396F8203003EB8E
:10488000830304EB430338F81330012B18D051464F
:104890003046FEF7CFFF820736D451463046FDF74B
:1048A000CBFF430439D496F82030504603EB830302
:1048B00004EB43033246012128F81370FFF78AFD09
:1048C0000134062CD0D14FF00108DFF8609008FACF
:1048D00004F31D42A7B20ED059F824305BB139461B
:1048E0003046FEF7A7FF10F0020F3246384607D0D9
:1048F0000621FEF74BFD01340A2CE8D1BDE8F08714
:104900000121FFF767FDF6E75046324606210134E4
:10491000FEF73CFD062CA7D1D5E7514630460134C1
:10492000FDF72CFD062C9FD1CDE700BF50160020CF
:10493000781600204378052B0AD130B5C37803F0F0
:104940000303022B2BD0032B05D00023184630BDC8
:1049500000231846704790F9023090F802C0002BEF
:10496000F3DA022AF1D1642291F82050334902FB94
:104970000512948F002CE8D10CF00F0343F4004390
:1049800043F010038088D38701239D42A2F84200A0
:10499000A2F8444093874FD10622134620E090F9B5
:1049A00002C090F802E0BCF1000F20DB0A2ACCD153
:1049B000642291F82040214902FB0412958A002DBF
:1049C000C3D18088958350830EF00F0040F485405A
:1049D000D082012084429082B8D11A4647F64844DA
:1049E00002EB820201EB4202A2F86840AEE70A2A1B
:1049F000ABD14FF0640C91F8203010490CFB031C34
:104A0000BCF80A40002CA0D10EF00F0242F4844200
:104A100042F010028088ACF80C2001229342ACF8DE
:104A20001240ACF81000ACF80A2003D11A4647F641
:104A30000844D5E7134689E7062387E7A016002038
:104A400000B56FF0630E00210EFB00FE0E4B00EB75
:104A5000800203F15A0C02EB820203EB82030CEB9F
:104A6000820C0EF1720E5A89012A07D10128598150
:104A7000998108BF23F80E10198259820A336345C1
:104A8000F1D15DF804FB00BFA01600202DE9F04134
:104A9000012464270546244E02E001340A2C2BD061
:104AA00095F8202004EB840307FB02F202EB43039A
:104AB000F35A012BF1D100212846FDF77FFA1FFAA6
:104AC00084F800F00F00804518D001212846FDF73A
:104AD00075FA00F00F0080451ED002212846FDF730
:104AE0006DFA00F00F0080450FD041462846013492
:104AF000FCF762FF0A2CD3D1BDE8F08100232846E1
:104B00001A461946FDF7BAF8DFE7002302222846C5
:104B10001946FDF7B3F8E8E70023012228461946B5
:104B2000FDF7ACF8D9E700BFA0160020F8B50124C6
:104B3000642705460B4E02E001340A2C11D095F88B
:104B4000202004EB840307FB02F202EB4303F35A39
:104B5000012BF1D1A1B228460134FCF7E1FF0A2C68
:104B6000EDD1F8BDA016002038B504460C4D00F07C
:104B7000C3F8FFF77DF92046FEF7BAFE6B6923B153
:104B8000084A014612882046984720460021FDF732
:104B900037FD2B682046D979BDE83840FDF764BD64
:104BA000BC190020B817002010B504460A20FEF7F3
:104BB0007FF92046FEF702FF94F82000BDE8104080
:104BC000FEF74CBC2DE9F0410546FDF7B3F895F82A
:104BD0002000FEF757FC0023184A01241380184ACE
:104BE0006427184E138001E00A2C19D095F8203064
:104BF00004EB840207FB03F303EB4203F35A1FFAAF
:104C000084F8012B04F10104EED12A460821404624
:104C1000FEF7BCFB41462846FCF782FF0A2CE5D193
:104C2000094BDB691BB100221E212846984795F8E5
:104C30002000BDE8F041FEF709BC00BFBA19002012
:104C4000321A0020A0160020BC19002070B50446BE
:104C500090F82000FEF726FC94F82000FDF7DCFB1E
:104C600005462046FDF7C4F86B0603D500F00300A7
:104C7000012809D094F82000FEF738FC94F82000B1
:104C8000BDE87040FEF722BC94F82000FEF7DEFB82
:104C900000F034F8054B1B6A33B105492046BDE8E6
:104CA000704000220988184770BD00BFBC19002061
:104CB000321A0020FEF7B8BA70B506463046FDF746
:104CC000ABFB05460A20FEF7EFF83046FDF7A4FBE4
:104CD00004460A20FEF7E8F83046FDF79DFB85EA1A
:104CE000040344401C432306E8D415F0800F14BF8E
:104CF0004020432070BD00BF704700BF704700BF19
:104D00002DE9F0410E4600210C464FF028080546DB
:104D10004022254810F025FE21464FF4FF7223481B
:104D200010F01FFE224B21461C80224B34221C8097
:104D3000214B22481C80224B224F1C80224B1C807E
:104D4000224B1C80224B1C80224B1C80224B1C605F
:104D50005C60224B1C6010F004FE42462146204855
:104D600010F0FFFD424621461E4810F0FAFD4FF0BC
:104D70000E3C1D4B424621461C605C609C60DC6022
:104D80001C611A48C7F800C0C7F804C0A7F808C0DB
:104D900010F0E7FD164A174B3146284614801C8058
:104DA000BDE8F041FFF7D0B9F0190020BC17002092
:104DB000601A0020401A0020421A0020BC1900206E
:104DC000341A0020CA1A0020361A0020301A002097
:104DD0005C1A0020BA170020381A0020441A00205C
:104DE0009017002068170020481A00205016002055
:104DF000BA190020321A00202DE9F0410025174B86
:104E0000174A1B88158003F47F43B3F5106F0ED04B
:104E1000B3F5306F19D1134B9B6AB3B1124A1349E2
:104E200014882A4631F81410BDE8F0411847104E96
:104E3000104F04463088B7F80080FFF72DF833880C
:104E4000434502D0074B9B690BB9BDE8F0812A4668
:104E500020463988BDE8F041184700BF401A0020BD
:104E60005C1A0020BC190020341A0020BC17002056
:104E7000421A0020BA1900208E4B0246198801F40C
:104E80007F43B3F5006F5AD030B583B017D8002BED
:104E900031D0B3F5C06F35D111F01F0338D1864B37
:104EA00019880B0A013BCCB2062B2BD8DFE813F094
:104EB0007900B500A6002A002A00C6008600B3F5D6
:104EC000206F1FD101F01F0101291BD17A4B1B88D4
:104ED000C3B97A4B1888012814D1794B1B88FE2B53
:104EE00010D8784C784934F813300B7003B0BDE813
:104EF0003040FEF7A3BD704B1B881BB96F4C248854
:104F0000022C30D0104603B0BDE83040FEF78CB91B
:104F1000012BF7D16A4B6D481B88674C674D838026
:104F20006B4B24880180DB6A29884480C180002B78
:104F300000F09E80002103B0BDE830401847604873
:104F40005D4BB0F800C01B8801F01F0043EA0C0164
:104F5000014389B221B9594B1888012800F0828099
:104F60001046FEF761B95B4C01F01F010129238057
:104F700000F0908002297DD00029C3D1504B1B88BE
:104F8000002BBFD10190FFF72FF8534B20701B88E7
:104F9000019A012B04BF40F00200207002204D490D
:104FA000A4E7474B1B882343ACD14949434B0968CD
:104FB00018880B78834299D8184697E70190FFF735
:104FC0006DFA0128019A9DD13D4B1B88234399D14D
:104FD0001046FEF78DFC3E4B384CD3E90213C02837
:104FE00018BF19462488C8788B78019A03EB0023F0
:104FF00098B2A0427FF67AAF204677E7344B93F819
:105000003010A1427FF67EAF19692C4B51F8241065
:1050100018880B788342CFD968E7294B1B88234334
:105020007FF470AF0190FEF763FC244C284B24887A
:10503000D3E90213C02808BF1946D4E70190FFF74F
:105040002DFA0128019A7FF45DAF1D4B1B88234385
:105050007FF458AF1E49194B496818880B78834272
:10506000AAD943E71D4B1E491B880B70FEF7E6BC0F
:1050700003B030BD124D2B881B0733D190F82000B0
:105080000192FDF709FB10F0020F019A86D001236F
:10509000237083E70190FEF785F80128019A7FF4D9
:1050A00031AFFEF713FF064B019A1B888342FFF4D2
:1050B00075AF27E7401A0020421A0020361A002058
:1050C000341A0020BC170020B81A0020381A00201B
:1050D000BC190020C01A0020321A0020BA19002082
:1050E000BC1A00200190FEF75DF80128019A7FF4B8
:1050F00009AF11462888FFF7A7F9FF280146019A52
:105100003FF400AF1046FEF795FB10F0020F019A36
:10511000BDD143E7FEF788B8F0B5AE4D04462A8806
:105120008DB002F47F43B3F5A06F00F085801DD9E8
:10513000B3F5106F00F09080B3F5306F09D1FEF732
:1051400031F8012805D12B8803F01F03012B00F053
:10515000BB802046FEF768F89F4E3388012B2AD08B
:1051600021460020FEF7D6FC0DB0F0BDB3F5807FE0
:1051700046D0B3F5407FECD1984B1B88002BE8D18B
:1051800012F01F0200F0DE80022AE2D1944B1B884D
:10519000002BDED1934B1888020707D02146FFF77A
:1051A00053F9FF28D5D02146FEF738F800212046D4
:1051B000FEF788FBD0E7912300278DF80F3094F895
:1051C000203087498DF80C30864B09881B882A8847
:1051D000ADF81C30814BADF81A101B8803A90820CC
:1051E000ADF81820ADF81E300597ADF81070FEF739
:1051F0008FFB214600203780FEF78CFC0DB0F0BD00
:10520000764B1B88002BA4D112F01F0200F0848083
:10521000022A9ED1724B1B88002B9AD1714B1B889E
:1052200013F00F0140F097800191FEF751FB2046EB
:105230000199FEF747FB8FE76A4B68491B8809888D
:1052400002F01F020B431A4392B2002A81D1644B31
:105250001B887F2BAAD97CE7D3067FF47AAF624BF9
:105260005F4F9A683B8852799A4202D0002B7FF4B4
:1052700070AF5C4A594B168819880E43B6B2002E9F
:105280007FF467AF31462046FEF71CFB3B88002BBE
:105290003FF462AF554A12889A423FF45DAFFEF781
:1052A00009FEFEF713FE074638B1304600210136ED
:1052B000FEF73CFEB0B28742F8D82046FFF736FC36
:1052C0002046FFF7E3FB47E7FEF700FE454E338835
:1052D0009842FFF43EAF414A1788002F7FF439AF60
:1052E0001846FEF7F9FD3E4B1B889842FFF431AF9C
:1052F000328839463E4FDBB2204627F81230FEF79F
:10530000E1FAFEF7D7FD308837F81010FEF70EFEF1
:105310002046FFF7BBFB1FE7314B1B88012B7FF4B7
:1053200018AF304B1E88002E7FF413AFFEF74EFEF1
:1053300001287FF40EAF2F4B314620461E80FEF72A
:10534000C1FA09E7264B1B88012B5DD0022B2BD01D
:10535000FFF7B0FC00E701461846FFF775F8FF2895
:1053600006463FF4F6AE01462046FEF763FA0128F2
:105370003146204659D0FEF7ABFA31462046FDF7BC
:10538000EDFA00212046FEF79DFA1B4B33F816205C
:10539000012A7FF4E1AE0022184920460F6823F865
:1053A00016201146B847D7E6FEF7A2FAC0287FF4C8
:1053B000D0AE0C4B1B88A3F5804211047FF5C9AE1B
:1053C00001260F490F4A0B80204600211680FEF768
:1053D00079FAC1E6401A00205C1A0020361A002033
:1053E000421A0020341A0020BC190020BA190020EB
:1053F000BC170020321A0020481A0020441A00204E
:10540000601A00205E1A00200D4B1E88002E7FF4CB
:10541000A0AEFEF7DBFD01287FF49BAE094B3146C1
:1054200018802046FEF74EFA96E6FCF7E5FB31467B
:105430002046FDF793FA31462046FEF743FAA0E7EF
:10544000341A0020321A0020F0B5274E0446338863
:105450008BB003F47F43B3F5006F06D013D9B3F5D7
:10546000206F02D0B3F5406F12D1204D00212046AD
:10547000FEF728FA2B88012B11D021460020FEF7D9
:1054800049FB0BB0F0BD002BEFD0B3F5C06FECD0F3
:10549000164D2046FDF7C8FE2B88012BEDD1912338
:1054A00000278DF8073094F8203011498DF804302A
:1054B000104B09881B883288ADF814300E4BADF8BC
:1054C00012101B8801A90820ADF81020ADF8163085
:1054D0000397ADF80870FEF71BFA214600202F80D5
:1054E000FEF718FB0BB0F0BD401A00205C1A00203C
:1054F000421A0020341A0020361A0020F0B5204E3F
:10550000044633888BB003F47F43B3F5E06F0BD0D0
:105510001C4DFDF789FE2B88012B0CD02146002065
:10552000FEF7F8FA0BB0F0BD164D0021FEF7CAF9F0
:105530002B88012BF2D1912300278DF8073094F8A6
:10554000203011498DF80430104B09881B883288AF
:10555000ADF814300E4BADF812101B8801A90820CD
:10556000ADF81020ADF816300397ADF80870FEF7CF
:10557000CFF9214600202F80FEF7CCFA0BB0F0BD0A
:10558000401A00205C1A0020421A0020341A002021
:10559000361A0020024630B500250C468BB0516803
:1055A000006804AB03C329462046FEF78BF991231C
:1055B00094F8202001A908208DF804208DF80730E8
:1055C0000395ADF80850FEF7A3F9044B2146284691
:1055D0001D80FEF79FFA0BB030BD00BF5C1A0020A3
:1055E000024630B500250C468BB05168006804AB0C
:1055F00003C329462046FEF765F991220C49BDF800
:105600001630086894F820101B1A8DF80410082032
:1056100001A903938DF80720ADF80850FEF778F93B
:10562000044B214628461D80FEF774FA0BB030BDAE
:10563000681700205C1A002010B5034600888CB063
:1056400000F06000202801D0402806D105295FD84D
:10565000DFE801F02F19501957354FF0910E92F8ED
:1056600020C000221868596806AB8DF80FE003C30C
:10567000072003A98DF80CC00592ADF81020FEF7A5
:1056800047F90CB010BD00244FF0910C1868596810
:1056900092F8202006AB8DF80C2003C3072003A945
:1056A0000594ADF810408DF80FC0FEF731F90CB03D
:1056B00010BD00231A491B4A0B801380E1E7002428
:1056C0004FF0910C1868596892F820E006AB03C3BC
:1056D00003A9072001928DF80CE00594ADF8104065
:1056E0008DF80FC0FEF714F9019A20461146FEF717
:1056F00011FAC6E7114618460CB0BDE81040FFF796
:1057000049BF114618460CB0BDE81040FFF768BF0E
:10571000114607200CB0BDE81040FEF7FBB900BFF2
:10572000301A00205C1A00200A4600F10C0303CB5B
:1057300010605160002070470E2370B5134D0B7040
:105740000E460446FEF706F96B782A789A421BD07B
:10575000A44603EBC30405EB84040C3405EB030EF1
:105760000FCCACE80F000FCCACE80F009EF802E0C5
:105770002368CCF8003086F800E06B780133DBB2A8
:10578000092B88BF00236B70002070BDC81A002051
:10579000F0B58B783B4E0370CA788FB002F07F0271
:1057A000C2700A6A8261F25C012A54D00A780C46FF
:1057B000012A054603D00221334A22F8131031781A
:1057C0007278114340D0002101223048304F20F838
:1057D0001310F2542F484FF40C7247F8231010F0B6
:1057E000C0F82378012B03D1002630460FB0F0BD5E
:1057F0002878FDF7E7F906460028F6D12146284625
:10580000FFF77EFA21462878FDF7C2FA6378022B6B
:1058100026D02878FDF7A2FE2878FFF74DFA402819
:1058200025D02378012BDFD030462B7857F8232062
:1058300042F0010247F8232057F8232042F00202E9
:1058400047F823200FB0F0BD4FF4BA72124810F0A1
:1058500088F82B78B7E740F2DD5630460FB0F0BD40
:105860002B7868468DF82030FCF77CFAD1E7287851
:10587000FCF754FA0A20FDF71BFB2878FDF7EEFD34
:10588000CFE700BF781E0020741E0020C41A00203D
:105890003C1C0020441C0020C81A002070B54FF0AA
:1058A000060C0C4603782D4A2D4E32F8131084F85E
:1058B00002C056F823108EB000293FD032F81320D2
:1058C0008DF8203093B2012B02D100200EB070BDB4
:1058D0000026054626706846FEF70AF8802831D073
:1058E000C0280ABF0223667063702878FCF794FD15
:1058F00000F07003202B2BD011D9302B25D02F2B6B
:1059000005D80020174B1B88E3700EB070BD602BCC
:1059100002D00AD9702BF4D10423A370F1E7D3B1DC
:10592000102BEED10123A370EBE700F060004028BC
:10593000F2D00C4B00201B88E370E6E740F2DC500D
:105940000EB070BD01236370CFE70323A370D8E7C7
:105950000223A370D5E70623A370D2E7741E0020AC
:105960003C1C0020B817002070B505460078FDF7F4
:10597000D1F9C0B92B780E4A0E4ED05436F8132008
:10598000044692B2012A07D100220B49204641F871
:10599000232026F8132070BDFEF7BEFB2878FFF702
:1059A0004FF82B78F0E74FF4BC64204670BD00BF81
:1059B000781E0020741E00203C1C0020F0B5044618
:1059C0001646124F027883B037F812000D4680B2A7
:1059D000022804BF03F07F03E3702046627801A928
:1059E000FFF75CFF9DF80630032B03D040F2DC503C
:1059F00003B0F0BD324629462046FDF79FFE002841
:105A0000F6D0D528F2D140F2DD50F1E7741E002027
:105A1000F0B504461646124F027883B037F81200EC
:105A20000D4680B2022804BF03F07F03E3702046D6
:105A3000627801A9FFF732FF9DF80630032B03D0EF
:105A400040F2DC5003B0F0BD324629462046FDF757
:105A50009FFE0028F6D0D528F2D140F2DD50F1E7C4
:105A6000741E0020F0B583B00E46174601A9427897
:105A70000546FFF713FF18B99DF80630032B04D035
:105A800040F2DC54204603B0F0BD04463A463146AD
:105A90002846FDF7E3FDD52804D0FF28F0D02046A6
:105AA00003B0F0BD40F2DD54ECE700BFF0B583B0C9
:105AB0000E46174601A942780546FFF7EFFE18B9D2
:105AC0009DF80630032B04D040F2DC54204603B08E
:105AD000F0BD04463A4631462846FDF7E7FDD52895
